:1000000071C000008EC000008CC000008AC00000DB
:1000100088C0000086C0000084C0000082C00000CC
:1000200080C000007EC000007CC000007AC00000DC
:1000300078C0000076C0000074C0000072C00000EC
:1000400070C000006EC000006CC000006AC00000FC
:1000500068C0000066C0000064C0000072C10000FB
:1000600060C000005EC000005CC000005AC000001C
:1000700058C0000056C0000054C0000052C000002C
:1000800050C000004EC000004CC000004AC000003C
:1000900048C0000046C0000044C0000042C000004C
:1000A00040C000003EC000003CC000003AC000005C
:1000B00038C0000036C0000034C0000032C000006C
:1000C00030C000002EC000002CC000002AC000007C
:1000D00028C0000026C0000024C0000022C000008C
:1000E00020C0000011241FBECFEFD1E2DEBFCDBF84
:1000F00000E00CBF12E0A0E0B2E0EEE6F9E000E0C4
:100100000BBF02C007900D92A838B107D9F722E0C3
:10011000A8E8B2E001C01D92AE38B207E1F752D0B4
:1001200024C46ECF1F93CF93DF93D82F162F8FEF5A
:100130008AB95E9882E090E05AD15E9A81E090E0C0
:1001400056D1C8E0812F80788BB9110F82E090E002
:100150004ED15E9AC150B1F785E090E048D1C8E039
:100160008D2F80788BB9DD0F82E090E040D15E9AD0
:10017000C150B1F7DF91CF911F910895382F4E9B59
:10018000FECF88E090E04E99FECF990F29B1221F53
:100190002227221F920F4E9BFECF8150A1F70FC046
:1001A00028E080E04E99FECF880F99B1991F9927DA
:1001B000991F890F4E9BFECF2150A1F708959317E9
:1001C00079F308958FD351D344D181E090E00FD1DA
:1001D0003ED38FE38AB980EF87B98FEF81B984B9B5
:1001E0005F9A82B985B918B140E052E063E080E0DF
:1001F00012D264990BC018B1412F50E0E12C00E0FD
:1002000023E06AE081E028D2649BF5CF20D380E927
:1002100091E0EDD089E035D188B1BB24BA940F2E9E
:10022000FFE3AF2EF02D89E02CD1AC019C01A1E8B9
:10023000B0E88CD3EC01CC0FCD2FCC1FDD0BD195CA
:10024000BC9EC001BD9E900D1124EA01C81BD90BB4
:10025000F8B040E152E062E081E0DDD16E01DD24E2
:10026000E12C00E023E0A6016AE081E0F5D146E15F
:1002700052E062E082E0CFD14F2D50E023E06AE00F
:1002800082E0EAD14EE152E062E083E0C4D189B17C
:10029000807489B9811117C0812F70DFC82FD7D220
:1002A000CC2309F4C0CF43E352E062E080E0B3D155
:1002B0004C2F50E024E067E081E0CED188EE93E05F
:1002C00096D0C5D2B0CF649B19C06F2D8C2F2ADF7A
:1002D000BED24EE352E062E080E09DD1E12C00E02E
:1002E00024E0A60167E081E0B7D1AAB88BB1806CA9
:1002F0008BB988EE93E07BD0AAD295CF659B93CF44
:1003000040E052E063E080E086D164990BC018B110
:10031000412F50E0E12C00E023E06AE081E09CD135
:10032000649BF5CF94D280E991E061D07CCF83E0EB
:1003300084BD8DE085BD81E080936E0083E287BD42
:1003400008951F920F920FB60F9211242F933F938F
:100350004F935F936F937F938F939F93AF93BF93CD
:1003600080918C0290918D02019790938D028093E1
:100370008C0280918A0290918B02019690938B025D
:1003800080938A0240918A0250918B029A01ADECCF
:10039000BCECDCD2929582958F7089279F7089275B
:1003A00064E1689F9001699F300D11244217530743
:1003B00049F4809188029091890201969093890274
:1003C000809388028091880290918902809582B9F9
:1003D000BF91AF919F918F917F916F915F914F915D
:1003E0003F912F910F900FBE0F901F9018959093F3
:1003F0008D0280938C02892B31F080918C02909138
:100400008D02892BD1F70895CF93DF931F921F920E
:10041000CDB7DEB79A83898389819A81892BA1F030
:1004200000000000000000000000000000000000CC
:1004300000000000000089819A8101979A838983D6
:1004400089819A81892B61F70F900F90DF91CF916D
:10045000089580E480937C008FE080937E00EAE73B
:10046000F0E087EA808310927B0080818064808343
:10047000808184FFFDCFEAE7F0E080818F7E80837A
:10048000089590E490937C00883060F0ECE7F0E011
:1004900090818850892B8083EBE7F0E08081886130
:1004A00080830AC0ECE7F0E09081892B8083EBE742
:1004B000F0E08081877E8083EAE7F0E080818064DD
:1004C0008083808184FFFDCF81E090E090DF809188
:1004D000780020917900EAE7F0E090819F7E908398
:1004E00090E0922B0895882311F0A09A0895A09887
:1004F0000895882311F0A19A0895A198089588235A
:1005000011F0A59A0895A5980895811104C084B5A5
:100510008F7D84BD089594B5906294BD8B3008F0B2
:100520008AE0880F880F880F88BD0895EF92FF92A8
:100530000F931F93CF93DF937C01EB0181E0D3DF17
:1005400005E010E080E0D5DF81E0D3DF0150110944
:10055000C9F780E0C8DF80E0CCDF81E0CADF83E458
:10056000E816F10419F480E0BEDF02C081E0BBDFD1
:1005700080E0BFDF81E0BDDF80E0B5DF80E0B9DF94
:1005800081E0B7DF04E010E080E0B3DFC0FF03C02C
:1005900081E0A9DF02C080E0A6DFD695C79580E0A4
:1005A000A8DF81E0A6DF0150110971F780E09BDF31
:1005B00004E010E080E09DDF81E09BDF0150110945
:1005C000C9F704E010E080E094DFC0FF03C081E0E1
:1005D0008ADF02C080E087DFD695C79580E089DF9B
:1005E00081E087DF0150110971F780E07CDFC4E012
:1005F000D0E080E07EDF81E07CDF2197D1F781E0F1
:1006000072DF82E390E000DFDF91CF911F910F91C5
:10061000FF90EF9008950F931F93CF938A0190E27C
:10062000899F600D1124606870E083E490E07EDFB4
:10063000F8016081662361F0C0E0CF5F70E084E480
:1006400090E074DFF801EC0FF11D60816111F5CFCE
:10065000CF911F910F9108952F923F924F925F92E9
:100660006F927F928F929F92AF92BF92CF92DF92C2
:10067000EF92FF920F931F93CF93DF93CDB7DEB727
:100680002C970FB6F894DEBF0FBECDBF382E862E46
:10069000922E2E2C9A01ADECBCEC58D196958795F4
:1006A00096958795969587959C01220F331F880F05
:1006B000991F880F991F880F991F820F931F9A0106
:1006C000281B390BC901805D8C871AE00F2EFAE0D8
:1006D000CF2ED12CE12CF12CF02D2A01612C712C84
:1006E000AA24A394B12CAC0EBD1EA10EB11CC30153
:1006F000B201A701960108D1CA01B9012AE030E090
:1007000040E050E001D1605DF5016083CC0CDD1C60
:10071000EE1CFF1CD701C601880F991FAA1FBB1F23
:10072000880F991FAA1FBB1FC80ED91EEA1EFB1EE9
:100730001150B0F68CE089198219992009F46AC029
:10074000FE013196292D280FA1E0B0E0AC0FBD1FAE
:10075000A80FB11D9C9191938F5F8213F5CF002359
:1007600019F141E0490D8EE2FE01E90DF11D818391
:100770003CE03219842F341B91E0980F232F280F6F
:10078000E1E0F0E0EC0FFD1FE20FF11D2081E1E060
:10079000F0E0EC0FFD1FE80FF11D2083892F292FBA
:1007A000241B201748F301C0992DFE01E90FF11D0C
:1007B00011828981803309F5492D50E0415051095A
:1007C00014161506D4F480E090E020E060E22F5F7C
:1007D000E1E0F0E0EC0FFD1FE80FF91F6083822FCE
:1007E00090E0E1E0F0E0EC0FFD1FE80FF91F308131
:1007F000303319F48417950754F3AE014F5F5F4F00
:10080000682D832D08DF0AC08EE289833CE032190F
:1008100041E0B0CF0111F8CF1982EFCF2C960FB67F
:10082000F894DEBF0FBECDBFDF91CF911F910F9126
:10083000FF90EF90DF90CF90BF90AF909F908F9000
:100840007F906F905F904F903F902F90089561E060
:1008500070E083E490E06ADE81E090E0C8DD46E885
:1008600052E060E080E0D7CE089581E042DE80E093
:100870003ADE80E044DE82E090E0B9DD81E03FDEF8
:100880008AE090E0B4DD64E370E083E490E04EDE63
:1008900069E070E083E490E049DE60E370E083E4C7
:1008A00090E044DE6CE070E083E490E03FDECFDF78
:1008B00067E070E083E490E039DE48E452E060E015
:1008C00080E0A9DE4EE552E060E081E0A4DE43E78F
:1008D00052E060E082E09FDE43E752E060E083E0C8
:1008E0009ACE08958FEF81B9109207011DB897E253
:1008F00093BB98E7909301018093040118DD7894ED
:10090000B4DF8AE002CE0895A1E21A2EAA1BBB1B17
:10091000FD010DC0AA1FBB1FEE1FFF1FA217B307CB
:10092000E407F50720F0A21BB30BE40BF50B661FE1
:10093000771F881F991F1A9469F7609570958095A5
:1009400090959B01AC01BD01CF010895A29FB0011C
:10095000B39FC001A39F700D811D1124911DB29FF3
:0E096000700D811D1124911D0895F894FFCF94
:10096E00416464726573732057E4686C656E3A0077
:10097E00446174613A005461726765743A0054615F
:10098E007374652032206164642E2061656E646527
:10099E00726E00456D7066616E67656E3A004765F2
:1009AE0073656E6465743A004D792066697273746E
:1009BE0020426F61726420202020202020002D2DE7
:1009CE002D2D2D2D2D2D2D2D2D2D2D20202020208A
:1009DE002020002020202020202020202020202029
:0809EE00202020202020200021
:00000001FF
