:1000000071C000008EC000008CC000008AC00000DB
:1000100088C0000086C0000084C0000082C00000CC
:1000200080C000007EC000007CC000007AC00000DC
:1000300078C0000076C0000074C0000072C00000EC
:1000400070C000006EC000006CC000006AC00000FC
:1000500068C0000066C0000064C00000C6C00000A8
:1000600060C000005EC000005CC000005AC000001C
:1000700058C0000056C0000054C0000052C000002C
:1000800050C000004EC000004CC000004AC000003C
:1000900048C0000046C0000044C0000042C000004C
:1000A00040C000003EC000003CC000003AC000005C
:1000B00038C0000036C0000034C0000032C000006C
:1000C00030C000002EC000002CC000002AC000007C
:1000D00028C0000026C0000024C0000022C000008C
:1000E00020C0000011241FBECFEFD1E2DEBFCDBF84
:1000F00000E00CBF12E0A0E0B2E0EAECF6E000E0C5
:100100000BBF02C007900D92A239B107D9F722E0C8
:10011000A2E9B2E001C01D92A439B207E1F702D012
:10012000D2C26ECFB1D26CD204D187E690E0A8D013
:10013000D3D084E690E072D032D180E092E0B8D0A3
:100140008DE192E0E2D0C6E0D1E08BE392E0B0D066
:100150008EE492E0DAD082B18F5F82B9888190E03C
:100160005DD080E0FED09C01369527953695279589
:10017000ABE7B4E199D2969587958FD18CB1807F0A
:1001800001F140E050E060E070E080E090E014D1E8
:10019000649B03C08FEF93E026D1659B03C08FEF74
:1001A00093E039D1669B03C08FEF93E04CD1679BFE
:1001B000CCCF4FEF53E06FEF73E08FEF93E0FCD0C5
:1001C000C4CF81E0CED07C0182E0CBD08C0183E033
:1001D000C8D0A701B801F0D0B8CF83E084BD85E0D6
:1001E00085BD81E080936E0008951F920F920FB637
:1001F0000F9211248F939F9382EB86BD8091920280
:1002000090919302019790939302809392029F9111
:100210008F910F900FBE0F901F901895909393029F
:1002200080939202892B31F08091920290919302F7
:10023000892BD1F70895CF93DF931F921F92CDB7EB
:10024000DEB79A83898389819A81892BA1F0000086
:10025000000000000000000000000000000000009E
:100260000000000089819A8101979A83898389819E
:100270009A81892B61F70F900F90DF91CF910895AC
:1002800028E12093D10026E02093D2009093D5005E
:100290008093D40008958093D600E0EDF0E0808153
:1002A00086FFFDCFE0EDF0E08081806480830895DB
:1002B0001F93CF93DF93EC018881882349F010E0EE
:1002C000EADF1F5FFE01E10FF11D80818111F8CF90
:1002D000DF91CF911F91089588E18093C10086E05E
:1002E0008093C2001092C50087E68093C4000895F1
:1002F0008093C600E0ECF0E0808186FFFDCFE0EC6B
:10030000F0E080818064808308951F93CF93DF9312
:10031000EC018881882349F010E0EADF1F5FFE01CD
:10032000E10FF11D80818111F8CFDF91CF911F91F5
:10033000089580E480937C008FE080937E00EAE75C
:10034000F0E087EA808310927B0080818064808364
:10035000808184FFFDCFEAE7F0E080818F7E80839B
:100360000895ECE7F0E090E490839081892B8083FE
:10037000EAE7F0E0808180648083808184FFFDCFA4
:1003800081E090E04BDF8091780020917900EAE7EE
:10039000F0E090819F7E908390E0922B08958EEF05
:1003A0008093A0008BE18093A10083E08093A7005D
:1003B0008FEF8093A60008952FEF33E0F901E81B3B
:1003C000F90BC901861B970B241B350BF093A90071
:1003D000E093A8009093AB008093AA003093AD0007
:1003E0002093AC000895009731F0E2E0F1E0208125
:1003F0002860208305C0E2E0F1E02081277F208390
:100400002FEF33E0A901481B590BCA019093A900B3
:100410004093A8000895009731F0E2E0F1E02081D8
:100420002061208305C0E2E0F1E020812F7E20835F
:100430002FEF33E0A901481B590BCA019093AB0081
:100440004093AA000895009731F0E2E0F1E02081A6
:100450002062208305C0E2E0F1E020812F7D20832F
:100460002FEF33E0A901481B590BCA019093AD004F
:100470004093AC000895882311F0A09A0895A098A5
:100480000895882311F0A19A0895A19808958823CA
:1004900011F0A29A0895A2980895811103C083E0F3
:1004A00084BD089593E294BD8B3008F08AE0880FF4
:1004B000880F880F8E5488BD0895EF92FF920F9396
:1004C0001F93CF93DF937C01EB0181E0D4DF05E044
:1004D00010E080E0D6DF81E0D4DF01501109011582
:1004E0001105B9F780E0C7DF80E0CBDF81E0C9DF2D
:1004F00083E4E816F10419F480E0BDDF02C081E076
:10050000BADF80E0BEDF81E0BCDF80E0B4DF80E006
:10051000B8DF81E0B6DF04E010E080E0B2DFC0FFCA
:1005200003C081E0A8DF02C080E0A5DFD695C795B3
:1005300080E0A7DF81E0A5DF015011090115110559
:1005400061F780E098DF04E010E080E09ADF81E06E
:1005500098DF0150110901151105B9F704E010E009
:1005600080E08FDFC0FF03C081E085DF02C080E054
:1005700082DFD695C79580E084DF81E082DF01507D
:1005800011090115110561F780E075DFC4E0D0E0C5
:1005900080E077DF81E075DF21972097C9F7C2E31C
:1005A000D0E081E068DF21972097D9F782E390E0DF
:1005B00042DEDF91CF911F910F91FF90EF90089550
:1005C0001F93CF93DF93EA0190E2899F600D11247E
:1005D000606870E083E490E070DF6881662361F01A
:1005E00010E01F5F70E084E490E067DFFE01E10F40
:1005F000F11D60816111F5CFDF91CF911F910895B9
:1006000081E03FDF80E037DF80E041DF82E090E0A3
:1006100005DE81E03CDF8AE090E000DE64E370E02C
:1006200083E490E04ADF69E070E083E490E045DF36
:1006300060E370E083E490E040DF6CE070E083E42E
:1006400090E03BDF61E070E083E490E036DF81E042
:1006500090E0E4DD67E070E083E490E02EDF42E6C6
:1006600052E064E080E0ACDF4FE652E068E081E019
:10067000A7DF44E752E062E082E0A2DF45E852E013
:1006800065E083E09DCF08958FEF81B91092070157
:100690001DB887E283BB88E7809301019EDD7894D3
:1006A000AFDF82E0FACE0895A29FB001B39FC001F0
:1006B000A39F700D811D1124911DB29F700D811D8E
:0A06C0001124911D0895F894FFCF56
:1006CA0053697269757320426C61636B20525332AD
:1006DA00333220676573746172746574005369728A
:1006EA0069757320426C61636B20616E20555342B9
:1006FA0020676573746172746574005369726975F1
:10070A007320426C61636B20525332333200536957
:10071A007269757320426C61636B20616E20555358
:10072A00420053697269757320426C61636B002DD4
:10073A002D2D2D0042656C69766520696E206D61EC
:10074A006769632C00796F75206D7567676C652E14
:02075A0000009D
:00000001FF
